:100000000C9463000C948B000C948B000C9485066C
:100010000C9485060C9485060C948B000C948B0034
:100020000C948B000C948B000C948B000C948B0024
:100030000C948B000C948B000C948B000C948B0014
:100040000C943B060C948B000C9409060C94E3056D
:100050000C948B000C948B000C948B000C948B00F4
:100060000C948B000C948B000000000024002700EF
:100070002A0000000008000201000003040700003D
:1000800000000000000000000000230026002900FE
:1000900000000000250028002B00040404040404D0
:1000A0000404020202020202030303030303010227
:1000B00004081020408001020408102001020408F6
:1000C0001020FD06440911241FBECFEFD8E0DEBF8B
:1000D000CDBF12E0A0E0B1E0E2EFF7E102C0059091
:1000E0000D92AC33B107D9F723E0ACE3B2E001C025
:1000F0001D92AA35B207E1F710E0C2E6D0E004C0D5
:100100002197FE010E94E60BC136D107C9F70E9474
:10011000C4070C94EC0B0C940000CF92DF92EF928A
:10012000FF92CF93DF93B0912F03A0E08111AB2F0B
:100130008091300390E0880F991FAC014A575F4FC0
:10014000C0903503D0903603E0903703F090380329
:1001500030E020E0FA01C591D491E881B90190E046
:1001600080E0EB23EA130AC02F5F3F4F6C157D053B
:100170008E059F0578F36FEF7FEFCB01DF91CF9175
:10018000FF90EF90DF90CF900895AF92BF92CF9203
:10019000DF92EF92FF920F931F93CF93DF936C0147
:1001A0007B018B01040F151FEB015E01AE18BF0828
:1001B000C017D10759F06991D601ED91FC910190DA
:1001C000F081E02DC6010995892B79F7C501DF91F2
:1001D000CF911F910F91FF90EF90DF90CF90BF9044
:1001E000AF900895FC01538D448D252F30E0842F6E
:1001F00090E0821B930B541710F0CF96089501974F
:100200000895FC01918D828D981761F0A28DAE0F3B
:10021000BF2FB11D5D968C91928D9F5F9F73928FC2
:1002200090E008958FEF9FEF0895FC01918D828DEE
:10023000981731F0828DE80FF11D858D90E00895BB
:100240008FEF9FEF0895FC01918D228D892F90E013
:10025000805C9F4F821B91098F73992708958BE8CB
:1002600092E00E94230121E0892B09F420E0822FF3
:10027000089580E090E0892B29F00E942F018111E0
:100280000C9400000895FC01A48DA80FB92FB11D96
:10029000A35ABF4F2C91848D90E001968F739927BC
:1002A000848FA689B7892C93A089B1898C9183709A
:1002B00080648C93938D848D981306C00288F38993
:1002C000E02D80818F7D80830895EF92FF920F93C0
:1002D0001F93CF93DF93EC0181E0888F9B8D8C8DF2
:1002E00098131AC0E889F989808185FF15C09FB7E6
:1002F000F894EE89FF896083E889F98980818370A9
:10030000806480839FBF81E090E0DF91CF911F9157
:100310000F91FF90EF900895F62E0B8D10E00F5F78
:100320001F4F0F731127E02E8C8D8E110CC00FB64E
:1003300007FCFACFE889F989808185FFF5CFCE01E6
:100340000E944301F1CFEB8DEC0FFD2FF11DE35A1D
:10035000FF4FF0829FB7F8940B8FEA89FB89808169
:100360008062CFCFCF93DF93EC01888D8823B9F0E3
:10037000AA89BB89E889F9898C9185FD03C08081B0
:1003800086FD0DC00FB607FCF7CF8C9185FFF2CF2D
:10039000808185FFEDCFCE010E944301E9CFDF913F
:1003A000CF91089590E0FC01EE58FF4F2491FC019D
:1003B000E255FF4F3491FC01E656FF4FE491EE23E6
:1003C000C9F0222339F0233001F1A8F4213019F1CA
:1003D000223029F1F0E0EE0FFF1FE057FF4FA5910B
:1003E000B4918FB7F894EC91611126C030953E23FB
:1003F0003C938FBF08952730A9F02830C9F02430EE
:1004000049F7809180008F7D03C0809180008F77B5
:1004100080938000DFCF84B58F7784BDDBCF84B538
:100420008F7DFBCF8091B0008F778093B000D2CFCB
:100430008091B0008F7DF9CF3E2BDACFCF93DF9341
:1004400090E0FC01E255FF4F249186569F4FFC013E
:1004500084918823C9F090E0880F991FFC01E85926
:10046000FF4FA591B491FC01E057FF4FC591D49186
:1004700061110DC09FB7F8948C91209582238C93C5
:100480008881282328839FBFDF91CF910895623010
:1004900051F49FB7F8943C91822F809583238C93DD
:1004A000E8812E2BEFCF8FB7F894EC912E2B2C9365
:1004B0008FBFEACF8E3008F08E50877080648093B3
:1004C0007C0080917A00806480937A0080917A0029
:1004D00086FDFCCF809178009091790008953FB718
:1004E000F8948091810290918202A0918302B09150
:1004F000840226B5A89B05C02F3F19F00196A11DC7
:10050000B11D3FBFBA2FA92F982F8827BC01CD015D
:10051000620F711D811D911D42E0660F771F881FBC
:10052000991F4A95D1F708958F929F92AF92BF92EB
:10053000CF92DF92EF92FF926B017C010E946F02DB
:100540004B015C01C114D104E104F104B9F00E9433
:100550006F02681979098A099B09683E7340810511
:10056000910580F321E0C21AD108E108F10888EE74
:10057000880E83E0981EA11CB11CE4CFFF90EF9081
:10058000DF90CF90BF90AF909F908F900895CF92C3
:10059000DF92EF92FF920F931F93CF93DF93CDB72C
:1005A000DEB7C054D1400FB6F894DEBF0FBECDBF4A
:1005B0002FB7F8948091870290918802A0918902C8
:1005C000B0918A022FBF4091310350913203609164
:1005D0003303709134038C019D01041B150B260B12
:1005E000370BB901A801403D57406105710590F4F2
:1005F00080913903C05CDE4F0FB6F894DEBF0FBEAA
:10060000CDBFDF91CF911F910F91FF90EF90DF90C1
:10061000CF9008958093310390933203A0933303D6
:10062000B093340310922C0310922B0310922A03E0
:10063000109229031092280362E080912D030E94FA
:100640001E0261E070E080E090E00E94940261E0B0
:1006500080912D030E941E0260E080912D030E9474
:10066000D20180912E038551823020F58BE291E1F9
:100670000197F1F762E080912D030E941E028091A4
:100680003A0390E08230910538F0880F991F880F67
:10069000991F05970197F1F7F89480E00E948D006B
:1006A0006F3F7F4F8F4F9F4F61F4109239037894C3
:1006B00080E0A0CF64E170E080E090E00E949402CE
:1006C000D9CF81E00E948D006F3F7F4F8F4F9F4FAA
:1006D00061F38E010F5F1F4F6E018FEBC81A8EEF13
:1006E000D80A780180E00E948D00F7016083718351
:1006F0008283938381E00E948D00F7016483758378
:1007000086839783F8E0EF0EF11CEC14FD0451F79B
:10071000789430E020E0F801C080D180E280F3805E
:100720004481558166817781FFEFCF16DF06EF06A2
:10073000FF0631F04F3F8FEF58076807780719F42D
:1007400010923903B5CFF90183E0F595E7958A95C5
:10075000E1F7E85DFC4F8081880FC416D506E606F8
:10076000F70610F180832F5F3F4F085F1F4F28323D
:10077000310589F640912C032091280380912903AB
:10078000280F3327331F80912A03280F311D8091B2
:100790002B03820F932F911D99274817190681F675
:1007A00081E08093390326CF8160DCCF20917E02E7
:1007B00030917F022817390771F490917D02809162
:1007C0007C02981741F0E0917D02F0E0E45CFD4F7F
:1007D000808190E008958FEF9FEF08950895EF9244
:1007E000FF920F931F93CF93DF93DC015C96ED9004
:1007F000FC905D97E114F10479F481E090E01396A8
:100800009C938E93129790E080E0DF91CF911F919F
:100810000F91FF90EF9008955196ED91FC915297B2
:1008200050968C915097982F90950FB75E962C917B
:100830005E97122F127021FD6095F894208111238C
:1008400019F1282B2083E7012197F1F728E0462FA3
:1008500050E0308160FF1AC0382B3083E7012197C8
:10086000F1F7BA0175956795215089F7112381F049
:100870008081892380830FBF5C968D919C91019725
:10088000F1F781E090E0C1CF2923DCCF3923E5CF18
:100890009081892BEFCF20917E0230917F02281723
:1008A000390771F480917C0220917D0290E0805C98
:1008B0009F4F821B910960E470E00E949C0B089599
:1008C00090E080E0089520917E0230917F02281709
:1008D0003907B9F490917D0280917C02981789F0D4
:1008E000E0917D02F0E0E45CFD4F808120917D028B
:1008F00030E02F5F3F4F2F73332720937D0290E02E
:1009000008958FEF9FEF089590E080E00895FC0137
:1009100001900020E9F73197AF01481B590BBC014A
:100920008BE892E00C94C5008F929F92AF92BF9299
:100930000F931F93CF93DF93CDB7DEB7A1970FB679
:10094000F894DEBF0FBECDBF19A2423008F44AE0D2
:100950008E010F5D1F4F842E912CB12CA12CA5016F
:1009600094010E94B00BE62FB901CA01EA30F4F4F9
:10097000E05DD801EE938D01232B242B252B79F7F5
:1009800090E080E0109719F0CD010E948704A196B5
:100990000FB6F894DEBF0FBECDBFDF91CF911F9190
:1009A0000F91BF90AF909F908F900895E95CE1CF39
:1009B000CF92DF92EF92FF92CF93DF936B017C0196
:1009C0006DE28BE892E00E946501EC0166277727D3
:1009D000CB016C197D098E099F094AE00E9494049D
:1009E0008C0F9D1FDF91CF91FF90EF90DF90CF9004
:1009F0000895CF93DF930E948704EC0188ED91E086
:100A00000E9487048C0F9D1FDF91CF9108954F9214
:100A10005F926F927F928F929F92AF92BF92CF928E
:100A2000DF92EF92FF920F931F93CF936B017C01A4
:100A3000742EAC019B010E94970B882399F08BEDDB
:100A400091E0CF911F910F91FF90EF90DF90CF90A9
:100A5000BF90AF909F908F907F906F905F904F90DE
:100A60000C94870446015701E894B7F82FEF3FEF45
:100A70004FE75FE7C501B4010E94970B81110DC0DC
:100A80002FEF3FEF4FE75FE7C501B4010E94CD09AB
:100A900018161CF48FED91E0D4CF2FEF3FEF4FE706
:100AA0005FE4C701B6010E94250B18161CF483EE03
:100AB00091E0C7CF2FEF3FEF4FE75FECC701B601E3
:100AC0000E94CD0987FDF3CF20E030E0A901C701E6
:100AD000B6010E94CD0910E000E087FF0AC06DE278
:100AE0008BE892E00E9465018C01F7FAF094F7F828
:100AF000F094C0E060E070E080E09FE37C1641F09D
:100B000020E030E040E251E40E94D209CF5FF6CF0E
:100B1000A70196010E9461092B013C010E94440A31
:100B20004B015C014AE00E9494047C01E00EF11E3E
:100B3000CC23C1F1C501B4010E94730A9B01AC0131
:100B4000C301B2010E9460094B015C016EE28BE8B7
:100B500092E00E946501E80EF91EC15018F120E0F4
:100B600030E040E251E4C501B4010E942A0B2B01A0
:100B70003C010E94440A4B01B12CA12C4AE0C50162
:100B8000B4010E949404E80EF91EC501B4010E944C
:100B9000730A9B01AC01C301B2010E9460094B01C1
:100BA0005C01DBCFC701CF911F910F91FF90EF90B8
:100BB000DF90CF90BF90AF909F908F907F906F907D
:100BC0005F904F9008951F920F920FB60F921124CD
:100BD0002F933F934F935F936F937F938F939F9345
:100BE000AF93BF93EF93FF938BE892E00E94430192
:100BF000FF91EF91BF91AF919F918F917F916F91F5
:100C00005F914F913F912F910F900FBE0F901F90CA
:100C100018951F920F920FB60F9211242F938F9356
:100C20009F93EF93FF93E0919B02F0919C02808150
:100C3000E091A102F091A20282FD1BC090818091FF
:100C4000A4028F5F8F732091A502821741F0E0917B
:100C5000A402F0E0E557FD4F958F8093A402FF9129
:100C6000EF919F918F912F910F900FBE0F901F903A
:100C700018958081F4CF1F920F920FB60F92112416
:100C80002F933F938F939F93AF93BF93809187024E
:100C900090918802A0918902B0918A0230918002DD
:100CA00023E0230F2D3758F50196A11DB11D209388
:100CB00080028093870290938802A0938902B09368
:100CC0008A028091810290918202A0918302B09168
:100CD00084020196A11DB11D80938102909382022E
:100CE000A0938302B0938402BF91AF919F918F91A3
:100CF0003F912F910F900FBE0F901F90189526E8EF
:100D0000230F0296A11DB11DD2CF1F920F920FB6D5
:100D10000F9211242F933F934F935F936F937F9381
:100D20008F939F93AF93BF93EF93FF93E0917E02D6
:100D3000F0917F02309749F0A685B7858585968D1D
:100D400091FF14C09C918923A1F4FF91EF91BF9171
:100D5000AF919F918F917F916F915F914F913F9153
:100D60002F910F900FBE0F901F9018959C91892383
:100D700061F7A389B4899C918589809589238C9397
:100D8000868997890197F1F7608D718DA685B78562
:100D9000558538E020E0CB010197F1F7822F90E0F4
:100DA00095958795282F4C91452309F0206831505F
:100DB00091F7868D81FD209580917C0290E00196CF
:100DC0008F73992730917D02381799F0A0917C029A
:100DD000B0E0A45CBD4F2C9380937C02828D938DF8
:100DE0000197F1F7A389B4898C919589892B8C930C
:100DF000ACCF868D8160868FF1CF10928E021092DB
:100E00008D0288EE93E0A0E0B0E080938F02909393
:100E10009002A0939102B093920228EB31E03093BC
:100E20008C0220938B0225EC30E0309398022093C3
:100E3000970224EC30E030939A022093990220EC40
:100E400030E030939C0220939B0221EC30E0309301
:100E50009E0220939D0222EC30E03093A00220936A
:100E60009F0226EC30E03093A2022093A102109260
:100E7000A4021092A5021092A6021092A70210924C
:100E80003E0310923D0380933F0390934003A09351
:100E90004103B09342038AEC91E090933C0380932A
:100EA0003B0310925203109251031092540310927C
:100EB0005303109256031092550310925803109248
:100EC0005703609159036E7F6D7F60935903669558
:100ED000617081E068278BE00E94D20161E08BE0C5
:100EE0000E941E02E9EBF0E0E491E0934B03E5EA97
:100EF000F0E0E491F0E0EE0FFF1FE057FF4F859127
:100F0000949190934D0380934C0360E08AE00E949B
:100F10001E028091590381FD04C061E08AE00E94B5
:100F2000D2018AE080934703E8EBF0E0E491E0939C
:100F30004803E4EAF0E0E491F0E0EE0FFF1FEA5727
:100F4000FF4F8591949190934A038093490382E0E7
:100F500080932D0385E180932E03E0EBF0E0E49194
:100F6000E0932F03ECE9F0E0E491E093300380E8B4
:100F70009EE3A0E0B0E08093350390933603A09306
:100F80003703B09338030895789484B5826084BDA4
:100F900084B5816084BD85B5826085BD85B581607D
:100FA00085BD80916E00816080936E0010928100FB
:100FB00080918100826080938100809181008160B6
:100FC0008093810080918000816080938000809177
:100FD000B10084608093B1008091B0008160809303
:100FE000B00080917A00846080937A0080917A00CA
:100FF000826080937A0080917A00816080937A0089
:1010000080917A00806880937A001092C100E0910C
:101010009B02F0919C0282E08083E0919702F09124
:1010200098021082E0919902F0919A0280E1808307
:101030001092A302E0919F02F091A00286E08083CB
:10104000E0919D02F0919E02808180618083E09119
:101050009D02F0919E02808188608083E0919D02D4
:10106000F0919E02808180688083E0919D02F091E2
:101070009E0280818F7D808387EE91E00E94F9043B
:101080004AE068EC70E080E090E00E94940488ED13
:1010900091E00E94870460E082E00E941E028BE8DB
:1010A00092E00E942301181619065CF08EEF91E081
:1010B0000E94F90468EE73E080E090E00E949402E0
:1010C000EECF62E080912D030E941E022FB7F894AC
:1010D0008091870290918802A0918902B0918A0242
:1010E0002FBF805D9740A109B10980933103909390
:1010F0003203A0933303B093340387E380933A031E
:1011000000E010E080E2782EC4E6D0E0812C912C43
:1011100054018EE00E945A02BC01990F880B990B72
:101120000E94750A9B01AC01C501B4010E946109CE
:101130004B015C01219769F7C4E6D0E0C12CD12CAA
:1011400076018FE00E945A02BC01990F880B990B1F
:101150000E94750A9B01AC01C701B6010E9461099A
:101160006B017C01219769F70E94C7020E94C702A8
:101170008BE892E00E942301181619060CF074C047
:1011800070921E01D0E0C0E08BE892E00E94010165
:10119000FE01E25EFE4F8083CE010196DC01A25E7D
:1011A000BE4F1C9220812B3331F02F3F09F0EC0110
:1011B000CE31D10549F78091850290918602019642
:1011C000909386028093850280E091E00E948704DC
:1011D00084E092E00E9487048EE191E00E948704FF
:1011E00082E192E00E94870485E192E00E948704F8
:1011F0006091850270918602072E000C880B990B76
:1012000097FF3EC00E94D80482E192E00E948704CA
:1012100080E292E00E94870420E030E048EC52E453
:10122000C501B4010E94D20942E00E94070583E192
:1012300092E00E9487048DE292E00E94870420E001
:1012400030E048EC52E4C701B6010E94D20942E006
:101250000E9407058AE392E00E94F90468EC70E0BE
:1012600080E090E00E9494020115110509F44CCF32
:101270000E942F01882309F447CF0E94000044CF29
:101280004AE00E949404C0CF8AEC91E090933C0322
:1012900080933B0380917E0290917F028B53934019
:1012A00071F4E0914E03F0914F03908180915003CF
:1012B00080958923808310927F0210927E02089588
:1012C0005058BB27AA270E9478090C94EB0A0E9469
:1012D000DD0A38F00E94E40A20F039F49F3F19F447
:1012E00026F40C94DA0A0EF4E095E7FB0C94D40A89
:1012F000E92F0E94FC0A58F3BA17620773078407A4
:10130000950720F079F4A6F50C941E0B0EF4E095E9
:101310000B2EBA2FA02D0B01B90190010C01CA01AF
:10132000A0011124FF27591B99F0593F50F4503E5A
:1013300068F11A16F040A22F232F342F4427585F4C
:10134000F3CF469537952795A795F0405395C9F764
:101350007EF41F16BA0B620B730B840BBAF091501C
:10136000A1F0FF0FBB1F661F771F881FC2F70EC0BB
:10137000BA0F621F731F841F48F48795779567958E
:10138000B795F7959E3F08F0B0CF9395880F08F07A
:101390009927EE0F9795879508950E94B00A08F453
:1013A00081E008950E94E6090C94EB0A0E94E40A89
:1013B00058F00E94DD0A40F029F45F3F29F00C94B8
:1013C000D40A51110C941F0B0C94DA0A0E94FC0AE7
:1013D00068F39923B1F3552391F3951B550BBB2764
:1013E000AA2762177307840738F09F5F5F4F220FA9
:1013F000331F441FAA1FA9F335D00E2E3AF0E0E8A0
:1014000032D091505040E695001CCAF72BD0FE2FE9
:1014100029D0660F771F881FBB1F2617370748077D
:10142000AB07B0E809F0BB0B802DBF01FF27935835
:101430005F4F3AF09E3F510578F00C94D40A0C941B
:101440001F0B5F3FE4F3983ED4F38695779567953D
:10145000B795F7959F5FC9F7880F911D969587956A
:1014600097F90895E1E0660F771F881FBB1F621789
:1014700073078407BA0720F0621B730B840BBA0B47
:10148000EE1F88F7E09508950E94040B88F09F579F
:1014900098F0B92F9927B751B0F0E1F0660F771F98
:1014A000881F991F1AF0BA95C9F714C0B13091F08E
:1014B0000E941E0BB1E008950C941E0B672F782F2D
:1014C0008827B85F39F0B93FCCF386957795679553
:1014D000B395D9F73EF490958095709561957F4FBF
:1014E0008F4F9F4F0895E89409C097FB3EF4909565
:1014F0008095709561957F4F8F4F9F4F9923A9F0ED
:10150000F92F96E9BB279395F6958795779567957B
:10151000B795F111F8CFFAF4BB0F11F460FF1BC0BF
:101520006F5F7F4F8F4F9F4F16C0882311F096E952
:1015300011C0772321F09EE8872F762F05C0662300
:1015400071F096E8862F70E060E02AF09A95660FB9
:10155000771F881FDAF7880F9695879597F9089572
:10156000990F0008550FAA0BE0E8FEEF16161706B4
:10157000E807F907C0F012161306E407F50798F01C
:10158000621B730B840B950B39F40A2661F0232B35
:10159000242B252B21F408950A2609F4A140A695B1
:1015A0008FEF811D811D089597F99F6780E870E096
:1015B00060E008959FEF80EC089500240A941616C9
:1015C000170618060906089500240A941216130631
:1015D000140605060895092E0394000C11F48823BF
:1015E00052F0BB0F40F4BF2B11F460FF04C06F5FDB
:1015F0007F4F8F4F9F4F089557FD9058440F551FB1
:1016000059F05F3F71F04795880F97FB991F61F084
:101610009F3F79F087950895121613061406551FFB
:10162000F2CF4695F1DF08C0161617061806991F67
:10163000F1CF86957105610508940895E894BB275C
:1016400066277727CB0197F908950E94B00A08F41E
:101650008FEF08950E943D0B0C94EB0A0E94DD0A67
:1016600038F00E94E40A20F0952311F00C94D40A7B
:101670000C94DA0A11240C941F0B0E94FC0A70F3DC
:10168000959FC1F3950F50E0551F629FF001729F27
:10169000BB27F00DB11D639FAA27F00DB11DAA1F36
:1016A000649F6627B00DA11D661F829F2227B00D83
:1016B000A11D621F739FB00DA11D621F839FA00D0E
:1016C000611D221F749F3327A00D611D231F849F5E
:1016D000600D211D822F762F6A2F11249F575040B5
:1016E0009AF0F1F088234AF0EE0FFF1FBB1F661F30
:1016F000771F881F91505040A9F79E3F510580F0F9
:101700000C94D40A0C941F0B5F3FE4F3983ED4F37F
:10171000869577956795B795F795E7959F5FC1F79C
:10172000FE2B880F911D9695879597F908950E9435
:10173000B00A880B990B089597FB072E16F40094B6
:1017400007D077FD09D00E94D20B07FC05D03EF4EC
:10175000909581959F4F0895709561957F4F08955D
:10176000A1E21A2EAA1BBB1BFD010DC0AA1FBB1FA5
:10177000EE1FFF1FA217B307E407F50720F0A21B17
:10178000B30BE40BF50B661F771F881F991F1A9484
:1017900069F760957095809590959B01AC01BD01AE
:1017A000CF010895AA1BBB1B51E107C0AA1FBB1F95
:1017B000A617B70710F0A61BB70B881F991F5A95DD
:1017C000A9F780959095BC01CD010895EE0FFF1FFC
:1017D0000590F491E02D099410E0C2E6D0E004C039
:1017E000FE010E94E60B2196C336D107C9F7F89493
:0217F000FFCF29
:1017F2007B226D6561737572656D656E74223A2226
:101802006172643034222C000000000000006D6E12
:10181200627663787A000000000000000000000099
:1018220000000000000000000000000000000000B6
:1018320000000000000000000000000000000000A6
:101842000000000000000000000000000000000096
:101852000000000000000000000000000000000086
:101862000000000000000000000000000000000076
:101872000000000000000000000000000000000066
:101882000000000000000000000000000000000056
:101892000000000000000000000000000000000046
:1018A20000000000000000006501C500F200B20166
:1018B20023010101150100000000EF03C5008404AB
:1018C200EE034B046304D6030D0A006E616E0069D9
:1018D2006E66006F766600476F6F646E6967687444
:1018E200206D6F6F6E2120736C6565703D00302C2A
:1018F200302C3000202022636F6D6D616E64223ABD
:101902002200222C002020226C6F6F70223A2200CB
:1019120020202276616C75656130223A00202022F7
:0C19220076616C75656131223A007D0031
:107E0000112484B714BE81FFF0D085E080938100F7
:107E100082E08093C00088E18093C10086E0809377
:107E2000C20080E18093C4008EE0C9D0259A86E02C
:107E300020E33CEF91E0309385002093840096BBD3
:107E4000B09BFECF1D9AA8958150A9F7CC24DD24C4
:107E500088248394B5E0AB2EA1E19A2EF3E0BF2EE7
:107E6000A2D0813461F49FD0082FAFD0023811F036
:107E7000013811F484E001C083E08DD089C08234E0
:107E800011F484E103C0853419F485E0A6D080C0E4
:107E9000853579F488D0E82EFF2485D0082F10E0AE
:107EA000102F00270E291F29000F111F8ED06801E7
:107EB0006FC0863521F484E090D080E0DECF843638
:107EC00009F040C070D06FD0082F6DD080E0C81688
:107ED00080E7D80618F4F601B7BEE895C0E0D1E017
:107EE00062D089930C17E1F7F0E0CF16F0E7DF06D8
:107EF00018F0F601B7BEE89568D007B600FCFDCFD4
:107F0000A601A0E0B1E02C9130E011968C91119780
:107F100090E0982F8827822B932B1296FA010C0160
:107F200087BEE89511244E5F5F4FF1E0A038BF0790
:107F300051F7F601A7BEE89507B600FCFDCF97BE46
:107F4000E89526C08437B1F42ED02DD0F82E2BD052
:107F50003CD0F601EF2C8F010F5F1F4F84911BD097
:107F6000EA94F801C1F70894C11CD11CFA94CF0C13
:107F7000D11C0EC0853739F428D08EE10CD085E9AC
:107F80000AD08FE07ACF813511F488E018D01DD067
:107F900080E101D065CF982F8091C00085FFFCCF94
:107FA0009093C60008958091C00087FFFCCF809118
:107FB000C00084FD01C0A8958091C6000895E0E648
:107FC000F0E098E1908380830895EDDF803219F02E
:107FD00088E0F5DFFFCF84E1DECF1F93182FE3DFCA
:107FE0001150E9F7F2DF1F91089580E0E8DFEE27F6
:047FF000FF270994CA
:027FFE00040479
:0400000300007E007B
:00000001FF
